:020000040800F2
:10000000604F0020DD010008B34600089738000863
:10001000B1460008BD150008B14C00080000000002
:10002000000000000000000000000000B7460008CB
:100030007117000800000000B5460008B946000826
:10004000F7010008F7010008F7010008F7010008B0
:10005000F7010008F7010008F7010008F7010008A0
:10006000F7010008F7010008F7010008F701000890
:10007000F7010008F7010008F7010008F701000880
:10008000F7010008F7010008F7010008F701000870
:10009000F7010008F7010008F7010008F701000860
:1000A000F7010008F7010008F7010008F701000850
:1000B000F7010008F7010008F7010008F701000840
:1000C000F7010008F7010008F7010008F701000830
:1000D000F7010008F7010008F7010008F701000820
:1000E000F7010008F7010008F7010008F701000810
:1000F000F7010008F7010008F7010008F701000800
:10010000F7010008F7010008F7010008F7010008EF
:10011000F7010008F7010008BD470008C9470008BB
:10012000F7010008F7010008F7010008F7010008CF
:10013000F7010008F7010008F7010008F7010008BF
:10014000F7010008F7010008F7010008F7010008AF
:10015000F7010008F7010008F7010008F70100089F
:10016000F7010008F7010008F7010008F70100088F
:10017000F7010008F7010008F7010008000000007F
:10018000F7010008F7010008F7010008F70100086F
:10019000F7010008F7010008F7010008F70100085F
:1001A000F7010008F7010008F7010008F70100084F
:1001B000F7010008F7010008F7010008F70100083F
:1001C000F7010008F7010008DFF80CD000F0C2FAD0
:1001D00000480047298B0008604F002006488047F0
:1001E00006480047FEE7FEE7FEE7FEE7FEE7FEE71C
:1001F000FEE7FEE7FEE7FEE769470008C9010008E1
:100200002DE9F05F0546002092469B46884606464B
:10021000814640241BE0284641464746224600F0DE
:100220009AF853465A46C01A914110D311461846BF
:10023000224600F016F82D1A67EB01084F462246B9
:100240000120002100F00DF817EB00094E41201E9F
:10025000A4F10104DFDC484631462A464346BDE8A6
:10026000F09F202A04DB203A00FA02F100207047B8
:100270009140C2F1200320FA03F3194390407047E4
:1002800040EA01039B0703D009E008C9121F08C018
:10029000042AFAD203E011F8013B00F8013B521E98
:1002A000F9D27047D2B201E000F8012B491EFBD20F
:1002B00070470022F6E710B513460A460446194671
:1002C000FFF7F0FF204610BD421C10F8011B00296B
:1002D000FBD1801A704730B504460020034600E089
:1002E0005B1C934203D2E05CCD5C401BF8D030BD78
:1002F00030B505460020034600E05B1C934205D262
:10030000EC5CC85C201A01D1002CF6D130BD30B4B1
:10031000044696230800214604D0B62330BC0022B0
:1003200000F032B820460021F8E730B50B46014610
:1003300000202022012409E021FA02F59D4205D384
:1003400003FA02F5491B04FA02F52844151EA2F12E
:100350000102F1DC30BD202A04DB203A21FA02F050
:100360000021704721FA02F3D040C2F120029140EF
:100370000843194670470029A8BF7047401C490030
:1003800008BF20F00100704710B4B0FA80FC00FAFA
:100390000CF050EA010404BF10BC704749B1CCF125
:1003A000200421FA04F411FA0CF118BF01212143B1
:1003B0000843A3EB0C01CB1D4FEA00614FEA10206C
:1003C00042BF002010BC704700EBC350104400290E
:1003D000A4BF10BC7047401C490008BF20F00100BA
:1003E00010BC70472DE9FE4F804681EA0300C00F24
:1003F0000C46009021F0004123F00045B8EB0200CC
:10040000A94105D24046214690461C460B4602466D
:1004100023F00040104347D0270DC7F30A00C3F371
:100420000A510290401A019040286BDAC3F313007E
:1004300040F4801B0098924620B10023D2EB030ABF
:1004400063EB0B0B01985946C0F140025046FFF791
:1004500008FF06460D4650465946019A00F08CF9B1
:1004600010EB08006141002487EA115284EAE77327
:100470001A4340D0009A62B3019A012A4FEA075208
:1004800015DC001B61EB02014FF0004202EA07524B
:10049000CDE90042001C41F5801132462B4600F0A8
:1004A0008CF903B0BDE8F08F40462146F9E7001B08
:1004B00061EB0201001C41F5801300185B4120181C
:1004C000A2F5001747EB030140EAD570B6196D415C
:1004D00011E06D084FEA360645EAC0754FEA07524B
:1004E000001B61EB0201001C41F5801149084FEA35
:1004F00030000019514132462B4603B0BDE8F04FA1
:1005000000F04CB90098012240000023D0EB020219
:1005100063EBE073009821464FEAE074B8EB00000B
:1005200061EB0401E9E783F000435BE781F0004100
:1005300058E72DE9FE4F81EA030404F0004421F05E
:10054000004100944FF0000B23F0004350EA0104F7
:100550005ED052EA03045BD0C3F30A54C1F30A55D8
:100560002C44A4F2F3340194A0FB0254C1F3130110
:1005700041F48011C3F3130343F4801301FB0244DD
:1005800000FB034E840A970A44EA815447EA8357E2
:10059000A4FB076802958D0A05FB07854FEA932C9B
:1005A00004FB0C542705029D4FEA065847EA16370C
:1005B000B5EB08056EEB070C870E920E47EA811724
:1005C00042EA8312A7FB0201B6EB0B0164EB0004C5
:1005D0002B0D43EA0C335E1844EB1C50DA465146AF
:1005E000E7FB0201C5F313044FEA0B3343EA14534C
:1005F0004FEA0432019C43EA0603A4F10C0402947E
:10060000009CCDE900B400F0D8F803B0BDE8F08F4D
:1006100000200146F9E72DE9F04D81EA030404F0DA
:10062000004B21F0004514464FF0000A23F0004132
:1006300050EA050220D054EA01021DD0C5F30A5742
:100640000246C5F31303C1F31300C1F30A5640F485
:10065000801543F48013A7EB0608101BD64608F25A
:10066000FD3873EB050002D308F1010801E0921890
:100670005B41B8F1000F03DA00200146BDE8F08DC0
:1006800000204FF48011064684460EE0171B73EBE2
:10069000050705D3121B63EB050306434CEA010C67
:1006A00049084FEA300092185B4150EA0107EDD14A
:1006B00052EA030012D082EA040083EA05010843EB
:1006C00005D0101BAB4106D20122002306E0002218
:1006D0004FF0004302E06FF0010253101AEB0600E6
:1006E0004CEB085110EB0A0041EB0B01BDE8F04D5B
:1006F00000F054B8C1F30A52C1F3130140F2FF33C2
:1007000041F480119A4202DA00200146704740F21B
:1007100033439A42A2F2334202DC5242FFF71BBE3D
:10072000FFF79FBD30B5041E71F1000404DB4FF0EC
:100730000044404264EB0101141E73F1000405DB28
:100740001C464FF00043524263EB0403994208BF3A
:10075000904230BD064C074D06E0E06840F00103D2
:1007600094E8070098471034AC42F6D3FFF730FD09
:100770003477020854770208202A06DBCB17203A88
:1007800041FA02F043EAE07306E041FA02F3D04096
:10079000C2F12002914008431946704710B5141E5B
:1007A00073F1000408DA401C41F1000192185B412A
:1007B0001A4301D120F0010010BD2DE9F04D924601
:1007C0009B4611B1B1FA81F202E0B0FA80F2203218
:1007D0009046FFF746FD04460F4640EA0A0041EA0C
:1007E0000B0153465A46084313D0114653EA010001
:1007F00019D0C8F140025046FFF7ADFD05460E4640
:10080000504659464246FFF72CFD084305D00120CB
:1008100004E020463946BDE8F08D0020054346EA55
:10082000E0762C4337430A986305E40AA0EB0800FE
:100830000022FD0A44EA47540A3002D5002001464E
:10084000E9E7010510196941DDE908450019694129
:10085000BDE8F04DA2E770B58C1810F8015B15F0FB
:10086000070301D110F8013B2A1106D110F8012B22
:1008700003E010F8016B01F8016B5B1EF9D12B0747
:1008800005D40023521E0DD401F8013BFAE710F8FD
:10089000013BCB1A921C03E013F8015B01F8015BEA
:1008A000521EF9D5A142D8D3002070BD1CB5044614
:1008B00000F0DCFA034600F0C9FA02460020CDE958
:1008C00000040648064C006800EB800101EBC00103
:1008D00004EB8101C96D03F019FA1CBD300700203B
:1008E000D41A00200648C02330B40824052204602E
:1008F00061034361C261C16230BC01F099BF000075
:10090000501A002030B40A4C0A4B246804EB44040B
:1009100003EB84039B689C881D68E41DDB88E40866
:10092000203A14FB02F203FB025230BC00F022BF5B
:1009300030070020BC1B0020094810B50068816901
:1009400041F00101816101220648110301F09CFB85
:1009500001220548BDE81040082101F095BB0000C8
:10096000D41A002000200240002802402DE9F04760
:10097000002704461546894610463A4600E0521CB8
:1009800010F8011B0029FAD100F060FADFF89CC0D2
:10099000012B274EDCF8001001EB410106EB810131
:1009A00089688988B0FBF1F002D0022B09D104E0FC
:1009B000801A484304EB500002E0801A4843001BB1
:1009C00084B247F6FF71601E884200D30124E046DE
:1009D00000F03CFA0146D8F8000000EB400006EBBE
:1009E00080008068808807FB101189B2814213D390
:1009F000012012E049462046FFF784FFD8F80000A6
:100A00007F1CBFB26D1C00EB400006EB80008068CD
:100A10008088204484B2DBE700202A780AB10121D3
:100A200000E000210842E5D1BDE8F0873007002052
:100A3000BC1B00202DE9FF4F824614460320894647
:100A40000025A0EB440878E03E4EA9EB040B3E4F96
:100A50000AEB0500316801EB410157F821201FFA2C
:100A60008BF1039080B200F0AFF830681FFA8BF181
:100A700000EB400057F82020AAEB0500029080B25E
:100A800000F0A2F83068A9EB050B1FFA8BF100EB20
:100A9000400057F820200AEB0400019080B200F0DB
:100AA00093F830681FFA8BF100EB400057F82020D4
:100AB000AAEB0400009080B200F086F8316809EBE0
:100AC000040B039801EB410180B257F821201FFA73
:100AD0008BF100F079F830681FFA8BF100EB4000E1
:100AE00057F82020029880B200F06EF8326809EBC7
:100AF000050B01981FFA8BF102EB420280B257F806
:100B0000222000F061F832681FFA8BF1009802EBA6
:100B1000420280B257F8222000F056F8B8F1000FD8
:100B200004DA08EB850000F1060805E0291B641EC5
:100B300008EB810000F10A086D1CA54284D9BDE8CC
:100B4000FF8F000030070020BC1B00207CB51C4B31
:100B500006460D461B4C186800EB800101EBC000F7
:100B600004EB8000806C02281BD000F06FF919683C
:100B700000FB056001EB810505EBC10104EB810180
:100B8000C96D01EB800118680E4D0024E83500EBBB
:100B9000400355F82330CDE90043012303F0B6F8B4
:100BA0007CBD00F053F9196800FB056001EB81057D
:100BB00005EBC10104EB8101C96D01EB4001E2E7E6
:100BC00030070020D41A0020164B70B506460D469B
:100BD0001868154C00EB800101EBC00004EB8000AD
:100BE000806C02280ED000F031F9196805FB006016
:100BF00001EB810303EBC10104EB8101C96D41F8F5
:100C0000202070BD00F022F9196805FB006001EB9F
:100C1000810303EBC10104EB8101C96D21F81020B0
:100C200070BD000030070020D41A00202DE9F041EB
:100C30001C4616460D460746FFF788FF2819324620
:100C400081B23846FFF782FF22462946384600F037
:100C500009F8B81922462946BDE8F04180B200F0F3
:100C600001B800007CB51F4C05460B461E4E20689F
:100C700000EB800101EBC00006EB8000806C0228D5
:100C800021D000F0E3F8216800FB035001EB810361
:100C900003EBC10106EB8101C96D01EB800500BFCB
:100CA00000F0D4F82468401E0F4BE83304EB4401F5
:100CB00053F8211013460122CDE9000129462046B0
:100CC00003F024F87CBD00F0C1F8216800FB03505C
:100CD00001EB810303EBC10106EB8101C96D01EB5F
:100CE0004005DDE730070020D41A00202DE9F74F3A
:100CF000DFF8B49014460320DFF8B0A0A0EB440660
:100D00000F4600259046D9F8000082B000EB400164
:100D10005AF8210000F006FA4FF6FF7B31E08CB163
:100D200002980BEA44027B19001BCDE9000299B23C
:100D300080B2FFF70BFF0098791B89B2019A80B24D
:100D4000FFF704FF8DB102980BEA45023B1B401BE5
:100D5000CDE9000299B280B2FFF7F8FE0098391988
:100D600089B2019A80B2FFF7F1FE002E03DA06EB9A
:100D70008506B61D04E0281B641E06EB80060A36B5
:100D80006D1CA542CBD9D9F8000000EB40015AF800
:100D9000210000F0C7F9029805B042463946BDE887
:100DA000F04FFFF747BE000030070020BC1B0020BB
:100DB0002DE9FC419846234B0746234E15460C4629
:100DC000186800EB400056F8200000F0ABF91868F6
:100DD000A6F1E80200EB800101EBC00002EB80000D
:100DE000806C02281FD000F031F8196800FB0470F5
:100DF00001EB810404EBC10102EB8101C96D01EB40
:100E0000800400BF00F022F8411B1868434600EB45
:100E1000400256F82220CDE900122A46214602F06F
:100E200075FFBDE8FC8100F011F8196800FB047043
:100E300001EB810404EBC10102EB8101C96D01EBFF
:100E40004004DFE730070020BC1B00200548006895
:100E500000EB800101EBC000034901EB8000006E54
:100E60007047000030070020D41A002005480068B1
:100E700000EB800101EBC000034901EB8000406EF4
:100E80007047000030070020D41A00202DE9F041FF
:100E9000224C2820092140F21B1604F1140840F2CC
:100EA0001525352240F21D1C0B2340F2352788E81A
:100EB000EF1000212046FFF715FD4FF4F072226677
:100EC0004FF488716166002084F8340084F835009E
:100ED00084F836006060A060114AE0602260206102
:100EE000204601F026FB18B90021204600F05CF8EE
:100EF0000A4801F021FB01220A48110301F0C4F85D
:100F000009480122082101F0BFF800F01DF9074847
:100F100000F0FAF80020BDE8F0810000D41A0020AB
:100F200000680140002002400028024034070020F1
:100F300030B58DB00A46002304460093FFF786FFC4
:100F4000CDE90103FFF792FFFF21039007208DF801
:100F5000303009924FF4C0658DF83130CDE904315D
:100F600006938DF83230CDE90750FFF76FFF0A90F6
:100F7000FFF77CFF0B9022460948694601F0B0FA62
:100F8000074904EB44004FF0FF34E83101EB8002E5
:100F900023065460034C946041F820300DB030BDFE
:100FA000D41A0020340700204748F0B5016887B004
:100FB00041F080610160006800F080600590424867
:100FC0001438016841F400010160016801F4000176
:100FD0000591016841F010010160016801F0100104
:100FE0000591016841F040010160016801F0400194
:100FF0000591016841F480710160016801F480711C
:101000000591016841F400710160016801F400710B
:101010000591016841F480610160016801F480611B
:101020000591016841F480710160016801F48071EB
:101030000591016841F480610160006802240E2579
:1010400000F4806005901020CDE9000402A8002182
:1010500080E832001D48694600F02AFFE602694632
:10106000092004901A48CDE9006400F021FF194FCF
:101070004FF46640CDE9000469463846049500F017
:1010800017FF4EF6FF706946CDE90004124804953B
:1010900000F00EFF0495F720104D6946CDE90004DD
:1010A000284600F005FF012469463846CDE9006472
:1010B00000F0FEFE08206946CDE90004284600F055
:1010C000F7FE07B0F0BD00004438024000100240B7
:1010D0000018024000200240002402400028024084
:1010E0000149086070470000300700200449054AA4
:1010F000096801EB410102EB810148607047000083
:1011000030070020BC1B00200449054A096801EB98
:10111000410102EB81018860704700003007002028
:10112000BC1B00200349044A096801EB410142F855
:101130002100704730070020BC1B002002460148F8
:1011400001F0FCBAD41A00201B4802222DE9F0411C
:1011500000F13401174E07230660042581E82C00B6
:10116000CB6000240A61D7014A6110238A61910291
:1011700044604026C0E902454A00C0E90741C0E991
:1011800009241030002180E8C800103800F05EF813
:1011900009490948343102F053F8084D10B10120D3
:1011A000287000E02C7040F2036000F009F8287805
:1011B000BDE8F081400100A0941C00203C07002005
:1011C0002DE9F843204C102700254FF6FF78012623
:1011D000009521468146C4E90067C4E90265A1F192
:1011E0005000424602F060F8012000F0F5FD0220B8
:1011F0002146C4E90007C4E90265A1F15000424656
:1012000002F052F803214246C4E9001708202146A3
:10121000C4E90205A1F1500002F046F84FF408704D
:10122000009004214246C4E90260C4E90017214647
:10123000A1F1500002F038F8A4F150004946BDE891
:10124000F84302F020B80000E41C0020F0B504468A
:101250004F4887B0016841F00101016000684C49C6
:1012600000F0010005900839086840F4800008602B
:10127000086800F480000590086840F004000860E9
:10128000086800F004000590086840F00800086055
:10129000086800F008000590086840F01000086039
:1012A000086800F010000590086840F02000086011
:1012B000086800F020000590086840F040000860D1
:1012C000086800F040000590086840F08000086061
:1012D000086801210C2200F0800005900220CDE971
:1012E000010108230093CDE903022A48694600F072
:1012F000DFFD4CF2037000902748694600F0D8FDEE
:101300004FF6837000902548694600F0D1FD4FF6F6
:101310003F0000902248694600F0CAFD48F23310B1
:1013200000902048694600F0C3FD282000901E4828
:10133000694600F0BDFD1D494FF4007500224FF0D5
:10134000800CEE006F004A606801C1E902C5C1E986
:1013500004761831164EC300032581E80D00C1E95B
:1013600003254A618A6141F8186D21630F488C6337
:1013700000F08FFC0D4800F0BDFC00220F2138204A
:1013800001F024FA382001F013FA07B0F0BD000094
:101390003838024000080240000C024000100240B1
:1013A0000014024000180240001C0240D41B002020
:1013B000106402402DE9F04F95B0584D4FF0000BEE
:1013C00006465C46CDF844B0CDF848B0CDF84CB0F8
:1013D000A868016968788847002830707ED00024AA
:1013E0000DF1100A0DF1380908AF8BE0A8680DF176
:1013F0002C080AEB440208EB4401436968789847DB
:101400002878012807D138F8142029F814203AF850
:10141000141027F81410810705D538F81410C1F5F9
:10142000805129F81410410705D53AF81410C1F578
:10143000805127F81410000707D538F8140027F852
:1014400014003AF8141029F81410DFF8D48039F891
:10145000140058F82410884201D9421A00E00A1AF0
:101460002F491FFA82FC37F81420143151F8243028
:101470009A4201D9D31A00E09B1A9BB26344052B10
:1014800003D948F8240041F8242095F801C0BCF1A4
:10149000700F26D058F8242006EB44006B885A437E
:1014A000120B428051F82410AA885143090B818104
:1014B00013A8214612AB009011AA604607F0B6F8B7
:1014C000301911998175129980F82010139979B10A
:1014D00001290FD0022910D0032900E01AE010D111
:1014E0000DE006EB4401488037F814008881DFE7FF
:1014F000012100E00221C17603E00321FBE780F82F
:101500001BB0641C3078A0423FF670AF304600F04C
:1015100009F8044615B02046BDE8F08F40070020CA
:10152000F41C0020F8B504461448002669460096CD
:101530003546407807F06AF80098182816D005DC80
:1015400068B110280DD0142806D10CE01C280FD04B
:1015500040280FD049280FD001252846F8BDA662A3
:10156000FBE7012000E00220A062F6E70320FBE792
:101570000420F9E70520F7E70620F5E740070020FB
:1015800070B50C4C00260C4D60807020A18029683D
:101590008847696870208847512802D00326304662
:1015A00070BDA5607020607008212170E9688847CF
:1015B000F5E70000400700204C070020FEE7000090
:1015C000204AF0B5204E116840F25144631C0020BF
:1015D00021F00107176001213268C2F30A02A2F567
:1015E0008065493D04D0A24204D140F0010005E0ED
:1015F000084603E09A4201D1012200E00022144B88
:101600001043124A09D01348816081680029FCD137
:1016100002600068984213D0FEE70F4C4FF00A407A
:101620002468B0EB445F0BD10C48016001680029CD
:10163000FCD10A48083802600068984200D0FEE7F2
:10164000F0BD0000002000E0002004E0C2A507F487
:10165000CDB5E8B5003002400010005C084C0258DF
:10166000F0B5059C44EA034503685C6C04F0404413
:101670002C435C640368DA634268B2F5403F02D0F1
:101680000068C160F0BD01F47F42856801F47F0409
:10169000224301F07F4301F47F0701F47F46CCB27F
:1016A000BDB1012D16D001F47F02C1F3C401D20CEB
:1016B000022D11D0032D14D0320B390D15011A0F44
:1016C00045EA0123210943EA02320A4300688263A2
:1016D000F0BD1A432243F9E7B30A5B0143EAC22291
:1016E000F3E7F40ADB0F640144EA822242EAC332E0
:1016F000EBE7000001681823CAB2103AB2FBF3F21C
:10170000054B6FF30901032A9B5CC36500D9091DD2
:1017100081650846704700002057020810B58369AC
:101720004FF0C074826A0146002053B1B3F5005FE8
:1017300015D072B1012A0CD0022A0AD0032A09D18D
:1017400004E01AB1012A06D0022A03D1C96AC901EC
:1017500000D5012010BDC96AA142FAD010BD002AEF
:10176000F7D0012AF2D0022AF3D0032AF3D010BD19
:10177000704700002DE9F74F29480026DFF89CA0AC
:10178000006800EB40000AEB800080688588C7880D
:10179000E81D834620F00700401B00F0FF0939E0F8
:1017A0004FEADB010298012901FB060009D002295A
:1017B00009D0017842788378080440EA022018436F
:1017C00003E0007801E0008840BA002480461AE077
:1017D0002A1B02EB09010120491E884010EA080F6C
:1017E000009800EB04020E48016890B201EB410240
:1017F00002D05AF8222002E00AEB82014A680199DD
:10180000FFF7E2F9641CAC42E2D30198401C80B2BD
:101810000190761CBE42C3D3BDE8FE8FBC1B0020E6
:1018200030070020F0B5D1E90125D1E90343D1E922
:1018300005762A43D1F800C044EA0304D1E907350C
:1018400042EA0402496A42EA0702BCF1010F42EA95
:10185000060208D004681A432A430A43E30BDB0359
:101860001A4302600BE0066844682B4326F4F845EF
:1018700029430B4303606FF30E04224342600020B0
:10188000F0BD426942EA410141610020704738B52C
:1018900091E81C00C9686FF01F051A4305EB44145A
:1018A00044EA41210A4300920261002038BD000051
:1018B0002DE9F043914691E81C006FF00F05521E90
:1018C0002E0105EB03131A430B7E06EB04268C8ACC
:1018D0002F034FEA054C0D8A32434FF07F4808EB47
:1018E0000366CB68B9F1010F07EB05450CEB045417
:1018F0000CD081683F1107EB03331A432A4322437C
:10190000324301F070410A43826011E08168DFF8E0
:1019100028C0C7681B03A3F5805323432A4301EA69
:101920000C0132430B43836007F070442243C260D2
:101930000020BDE8F0830000FF0F0FFFF0B5012687
:10194000044600201E2301E05B1E05D303F01F07A1
:1019500006FA07F50D42F7D072B1082A0AD0102A0C
:1019600005D0182A01D1072B06D30120F0BD082B82
:10197000FBD201E0102BF8D22368596121688B68F3
:1019800023F0180313438B60F0BD000010B5040072
:1019900010D0607F20B900202077204600F032F878
:1019A00021790220607739B1D4E902122046FFF78D
:1019B000C5FF48B1012010BD216811484861206869
:1019C000816821F0180181606079A0B121682069E7
:1019D0000861012220686369816821F06001194370
:1019E00081602068A369816821F0800119438160CA
:1019F0006277002010BD21684FF0FF30E8E700005B
:101A0000B71DC10408B500680649884208D10648D8
:101A1000016841F480510160006800F4805000903A
:101A200008BD0000003002403038024070B590F828
:101A30003820012A23D0244C012680F83860022364
:101A400000EB011280F83930158CD36918320A2B5B
:101A500043EA054515D0092B13D0137B45EA0363F0
:101A6000056899B1E969A1431943E96101681368FF
:101A70000B6151680A291BD0092919D01DE00220E9
:101A800070BDD36803F07F432B43E9E7696AA14344
:101A900019436962016813688B6151680A2901D092
:101AA00009290AD1D168026821F07F41916204E0DE
:101AB000D168026821F07F411162002180F839600D
:101AC00080F83810084670BD0F0003FF70B50400A1
:101AD00004D094F83900002510B106E0012070BD53
:101AE000204684F8385000F01FF8022084F83900AE
:101AF000D4E900030121026822F440321A43026053
:101B00002068A368426B22F007021A4342632068F0
:101B1000E368026C6FF30D021A430264E56384F814
:101B20003910002070BD000008B5006806498842E1
:101B300008D10648016841F400010160006800F422
:101B40000000009008BD000000B0024030380240A4
:101B50002DE9F8430026044604270D4600964FF071
:101B6000030800680068C00726D000F0A5FA814687
:101B70001EE04068009010F0210F10D00098800601
:101B800003D5E06B40F00200E0630098C00703D08B
:101B9000E06B40F00100E0632168212035E0681C23
:101BA00006D000F089FAA0EB0900A8424DD8A5B3F1
:101BB000206841688907DCD52068C169406A01F066
:101BC000200100F02000084335D000F075FA81466E
:101BD0002DE04068009010F0290F1FD000980007FA
:101BE00003D5E06B40F00400E0630098800603D565
:101BF000E06B40F00200E0630098C00703D0E06BA8
:101C000040F00100E06321682920886084F8397081
:101C1000012084F83860BDE8F88316E0681C06D01F
:101C200000F04AFAA0EB0900A8420ED86DB1206876
:101C30004168C906CDD5226812210120916084F83F
:101C40003900002084F83860E5E7E16B84F83860FB
:101C500041F02001E16384F839800320DBE7F8B527
:101C60000446069894F83850012D10D0012684F8C7
:101C70003860022584F8395000902046FFF7F0FCC8
:101C80002068016841F0010101600020F8BD0220D8
:101C9000F8BD70B504002BD094F83500022826D08A
:101CA000206800252122016821F0010101602068DF
:101CB000056020684560206885602068C5602068F0
:101CC0000561206842612046FFF714FD94F85C200E
:101CD0003F2191408160E56325646564A564E56406
:101CE0002565656584F83550002084F8345070BD52
:101CF000012070BD2DE9F047044600F0DDF90546EE
:101D000064B14FF0000984F83490022184F8351052
:101D10002068016821F0010101600EE00120BDE8AA
:101D2000F08700BF00F0C8F9401B052805D9202125
:101D30006165032084F83500F1E720680068C0077A
:101D4000F0D1D4E90020D4E90251D4E9043C28437D
:101D500004F1180519430843116895E8E00140EAC9
:101D60000C001C4B2843194040EA060040EA0700DB
:101D7000B8F1040F40EA010003D1D4E90B13194371
:101D80000843106020680126656A4069042D20F030
:101D9000070045EA00050CD1D4E90A01054341B129
:101DA0002046FFF7BBFC20B14020606584F8356019
:101DB000B4E7206845612046FFF79CFC94F85C304E
:101DC0003F229A408260C4F8549084F83560002025
:101DD000A5E700003F8010F070B5044600F06CF9F4
:101DE0000546601C02D004480078044400F064F901
:101DF000401BA042FAD370BD20070020F0B587B089
:101E000014216846FEF755FA2148016800293CD1A3
:101E1000012101601F48016841F001010160006873
:101E200002240025694600F00100059003264FF6C4
:101E300083700C278DE8F100174800F039F848F25C
:101E4000331069468DE8F100144800F031F84CF287
:101E5000037069468DE8F100114800F029F84FF64B
:101E60003F0069468DE8F1000E4800F021F8282077
:101E700069468DE8F1000C4800F01AF80820694620
:101E80008DE8F100094800F013F807B0F0BD00003C
:101E900010070020383802400010024000180240AD
:101EA000000C024000140240001C024000080240E6
:101EB0002DE9F84FDFF89CE100224FF001084FF0C8
:101EC000030B4FF00F0A00BF0B6808FA02F423401F
:101ED000A34271D14D68022D01D0122D0FD1D5082A
:101EE0000E69570700EB8505A9462D6AFF0E0AFA11
:101EF00007FCBE4025EA0C052E43C9F820600F7987
:101F0000550006680BFA05FC07F0030726EA0C06E5
:101F1000AF40374307604E68012E05D0022E03D034
:101F2000112E01D0122E0ED18668CF6826EA0C063B
:101F3000AF403743876046680F79A643C7F3001761
:101F4000974037434760C4688E6824EA0C04AE406B
:101F50002643C6604C68E40075D53F4C256845F4BF
:101F600080452560246822F00306950704F4804428
:101F700000943A4C2D0F2644D6F80848DFF8E0C00C
:101F80000AFA05F7604524EA070401D100272EE08C
:101F9000344FB84201D1012729E0334FB84201D173
:101FA000022724E0314FB84201D103271FE0304F10
:101FB000B84202D104271AE045E02E4FB84201D1C1
:101FC000052714E02C4FB84201D106270FE02B4F14
:101FD000B84201D107270AE0294FB84201D10827AA
:101FE00005E0284FB84201D1092700E00A27AF4099
:101FF00027437546C6F808784E68DEF80040F603B9
:1020000024EA030400D51C43124E2C60361D4D6893
:102010003468AD0324EA030400D51C430D4F34603B
:1020200008374D683C68ED0224EA030400D51C43E0
:10203000084D3C600C354E682C68B60224EA030457
:1020400000D51C432C60521C102AFFF43DAFBDE8A4
:10205000F88F0000003C014044380240003001404D
:10206000000002400004024000080240000C024050
:10207000001002400014024000180240001C024000
:1020800000200240002402400AB181617047090427
:10209000FBE7000002480068C0F30B007047000037
:1020A000002004E000487047000702010148006872
:1020B000000C7047002004E0014880687047000071
:1020C0002007002010B5040014D0242084F841001B
:1020D0002068016821F001010160204600F0CAF982
:1020E0000020606484F84100206384F8420084F892
:1020F000400010BD012010BD90F841007047000065
:1021000070B5040004D094F84100002510B106E039
:10211000012070BD204684F8405000F0ACF9242026
:1021200084F841002068016821F001010160D4E9D0
:10213000001020F0706008612068816821F400417F
:102140008160E06821680128A06806D040F404405E
:102150008860E068022803D006E040F40040F7E71A
:1021600021684FF40060486020212068114A4368CC
:10217000134343602068C26822F40042C26054F8EE
:10218000106B0DCC104340EA0320F06054F81C3C67
:10219000D4E900021043186054F81C0D026842F0A4
:1021A00001020260656484F84110256384F842509E
:1021B000002070BD008000022DE9FF4F83B004466F
:1021C00090F841009A469346DDE91087DDF8489083
:1021D000202874D15FEA080014D09FB194F8400021
:1021E00001286CD0012084F84000FFF765FF012230
:1021F000064619230090D103204601F01DFC00285B
:1022000071D103E04FF4007060646CE00025C4F805
:102210002480222184F84110402084F84200656423
:102220006785534665635A4604992046CDE9009672
:1022300001F088FB10B184F8405054E0618DFF2715
:1022400034484FF08078FF294FF0007A04D9278571
:102250003A464346009005E0618D53462185009043
:1022600094F828202046049901F0D0FB00224B4628
:1022700004212046009601F0DFFBA0BB2068616AC4
:10228000406A0870606A401C6062208D401E81B206
:102290002185608D401E6085608DD8B1D1B9002246
:1022A0004B4680212046009601F0C6FBD8B9608DD0
:1022B000FF2805D927853A464346009506E026E0E3
:1022C000608D53462085009594F828202046049977
:1022D00001F09CFB608D0028C8D13246494620465B
:1022E00001F0D7FB18B1012007B0BDE8F08F2168DD
:1022F0002020094AC86121684B6813404B6084F86C
:10230000410084F84250002084F84050ECE702205D
:10231000EAE700000024008000E800FE2DE9FF4FFE
:1023200083B0044690F841009A469346DDE9108751
:10233000DDF84890202871D15FEA080014D09FB1E1
:1023400094F84000012869D0012084F84000FFF78C
:10235000B3FE0122064619230090D103204601F066
:102360006BFB00286ED103E04FF40070606469E0FD
:102370000025C4F82480212184F84110402084F8ED
:10238000420065646785534665635A460499204652
:10239000CDE9009601F008FB10B184F8405051E0FF
:1023A000608DFF274FF08078FF284FF0007A04D926
:1023B00027853A464346009505E0608D53462085C3
:1023C000009594F828202046049901F01FFB32461E
:1023D0004946204601F084FBA0BB606A2168007872
:1023E0008862606A401C6062608D401E6085208D3E
:1023F000401E80B22085618DD9B1D0B900224B46F4
:1024000080212046009601F017FBD8B9608DFF2887
:1024100005D927853A464346009506E026E0608DBB
:1024200053462085009594F828202046049901F011
:10243000EDFA608D0028CAD132464946204601F0A7
:1024400028FB18B1012007B0BDE8F08F20682021DB
:10245000074AC161206843681340436084F8411013
:1024600084F84250002084F84050ECE70220EAE76C
:1024700000E800FE70477047024881680278114406
:102480008160704720070020032010B500F0BEF9DE
:10249000002000F005F800F073F9002010BD0000E6
:1024A00070B50D4D04464FF47A700C4A29781268C5
:1024B000B0FBF1F0B2FBF0F000F00EFF48B9102CC9
:1024C00007D200222146501E00F080F900206C60E7
:1024D00070BD012070BD0000200700202C070020E7
:1024E0002DE9F041044690F8A00016460F46012859
:1024F0001DD0012584F8A050022084F8A10006EB2D
:10250000860000EBC600342204EB80003830FDF773
:10251000B7FE32463946204601F038FC21680020DB
:102520004D6284F8A15084F8A000BDE8F08102203B
:10253000FBE790F8A10070472DE9F041040004D0BA
:1025400094F8A100002518B107E00120BDE8F08152
:10255000204684F8A05000F06BF83448022184F83B
:10256000A110012202CC8B6923F070438B6194E8A7
:102570004A001943E3681E4354F8043D31439E6901
:102580003143996121688B6803408B602168A68A7A
:10259000A7698B683B4343EA06438B602168CB689D
:1025A0000340CB602168A38B276ACE683E4346EA8E
:1025B0000346CE6021680B6903400B612368A68C3B
:1025C000A76A1969394341EA0641196121684B69D3
:1025D00003404B612068A38D266B4169314341EA7A
:1025E00003414161236894F8351094F83600DE6A9F
:1025F000000406F07F46DE62236840EA012094F87A
:102600003460D96A31430143D9622068416B41F09B
:10261000060141632068816941F001018161C4F8CC
:10262000A45084F8A120002090E7000000F800F0FA
:1026300070B586B0044614216846FDF73AFE384965
:10264000206888426AD13748016841F080610160A2
:10265000006800F08060059032481438016841F04D
:1026600010010160016801F010010591016841F459
:1026700000710160016801F400710591016841F485
:1026800080610160016801F480610591016841F099
:1026900040010160016801F040010591016841F4C9
:1026A00080710160006800240E26694600F4807085
:1026B00005901020009002251B48CDE90154CDE97A
:1026C0000346FFF7F5FB4EF6FF700090CDE901548D
:1026D00016486946CDE90346FFF7EAFBF72000906C
:1026E000CDE9015412486946CDE90346FFF7E0FB06
:1026F0000921E8020090CDE90154CDE903410D48DC
:102700006946FFF7D5FB4FF446400090CDE90154F0
:1027100009486946CDE90346FFF7CAFB06B070BD1C
:10272000006801404438024000100240002402408A
:1027300000280240001802400020024070B5044604
:1027400090F8A0000B46012818D002EB820000EBA5
:10275000C201012584F8A050022084F8A10004EBF6
:1027600081012046CB64383101F010FB2168002044
:102770004D6284F8A15084F8A00070BD022070BDA5
:102780000A4808B5016841F080510160006800F016
:10279000805000900548001D016841F480410160AF
:1027A000006800F48040009008BD000040380240FE
:1027B000002809DB410900F01F028900012001F116
:1027C000E0219040C1F80001704700000E4BF0B4CA
:1027D0001B680D46C3F30223C3F10706042E00D97C
:1027E0000426191D072901D2002300E0DB1E012465
:1027F00004FA06F19C40491E2940641E9940144089
:102800002143F0BC02F08DBA0CED00E0064900F067
:10281000070210B54FF6FF040868044B204040EA59
:1028200002201843086010BD0CED00E00000FA051E
:102830002DE9F84F04460078DFF824944FF00006A5
:102840003746C0070ED0D9F8001021F40001C9F8AE
:102850000010D9F80010626B1143C9F80010606BCA
:1028600000B90126FE4D2068843500030ED5E16BCA
:10287000286820F4401008432860E06BB0F5801F02
:1028800001D010B102E0012600E0012720684FF4DA
:10289000800BC0020CD5216C286820F4400008434E
:1028A0002860206C584501D1012601E000B90127BC
:1028B0002068C10100D50126800666D5E848383079
:1028C000016841F0805101600068DFF898A300F0D2
:1028D00080500090DAF8001041F48071CAF80010BE
:1028E000FFF7EAFB804605E0FFF7E6FBA0EB0800F8
:1028F00064287DD8DAF80000C005F5D5DFF86083DC
:1029000008F16808D8F8000010F440702AD0218E31
:1029100001F44071814225D0D8F80010D8F8002089
:1029200021F4407142F48032C8F80020D8F8002029
:1029300022F48032C8F80020C8F80010D8F800004F
:10294000C0070FD0FFF7B8FB824607E0FFF7B4FBE4
:10295000A0EB0A0141F288308142CAD8D8F80000C1
:102960008007F3D5206BC0F3012103297ED0D9F86D
:10297000001021F4F811C9F80010228ED8F80010C8
:10298000C2F30B021143C8F800102078C00607D527
:10299000286820F0807028602868A16B08432860B0
:1029A0002188AF488830490405D5626E016821F45A
:1029B0004031114301602188090405D5A26E0168E8
:1029C00021F44021114301602168C90305D5E26E5D
:1029D000016821F44011114301602168890305D584
:1029E000226F016821F4400111430160217800E069
:1029F00018E1490605D5626C016821F00301114315
:102A000001602178090605D5A26C016821F00C014E
:102A1000114301602188C90505D5E26C016821F0E8
:102A20003001114301602188890505D5226D0168B7
:102A300021F0C001114301602188490505D5626D6F
:102A4000016821F44071114301602188090505D511
:102A5000A26D016821F44061114301602188C9041D
:102A600007D5E26D016821F4405100E041E01143D7
:102A700001602188890405D5226E016821F4404156
:102A8000114301602168490205D5A26F016821F058
:102A900080611143016021684FF0006A890209D505
:102AA000E26F016821F0006111430160E16F51455F
:102AB00000D1012721680A0700D50127490305D560
:102AC000626F016821F040711143016021680902C1
:102AD00006D5D4F88020016821F0805111430160AF
:102AE000DFF88491012E0ED02068B0F1007F0AD06B
:102AF0008FE05E4AD9F80030104023F4F812024308
:102B0000C9F8002039E7D9F800004E4620F080606F
:102B1000C9F80000FFF7D0FA804605E0FFF7CCFACD
:102B2000A0EB080064287DD830680001F6D4217835
:102B30004B487C30C90712D0616B81B9237A626837
:102B40000168D0F800C09201C1F3014142EA01429C
:102B5000CCF3036142EA016141EA0371016021683B
:102B60000A0303D5E26BB2F5801F04D0C9021AD55F
:102B7000216C594517D16368016894F80CC002684C
:102B80009B01C1F3014143EA0141C2F3027241EAF0
:102B90000C6141EA027101602968626A21F01F013B
:102BA000521E114329602168C90110D5238A626829
:102BB0000168D0F800C09201C1F3036142EA034208
:102BC00042EA0162CCF3027142EA017101602168BC
:102BD00089010CD56168228A237B94F808C0890199
:102BE00041EA024141EA036141EA0C710160316846
:102BF000B04641F080613160FFF75EFA064604E0BE
:102C0000FFF75AFA801B64280CD8D8F8000000019E
:102C1000F6D56FB3D9F800004E4620F08050C9F8C1
:102C2000000000E079E0FFF747FA074605E000BF43
:102C3000FFF742FAC01B64286FD83068C043800099
:102C4000F6D50748216880300A0301D5E26B1AB136
:102C5000C90225D5216C19BB63690168277E08E08C
:102C6000083802400070004000380240FFFCFF0FAF
:102C70005AE00268C1F301419B0143EA0143C2F3F8
:102C8000027143EA076242EA0171016029686FF04C
:102C9000FF03A26A21F4F85103EB022211432960D9
:102CA0002168890212D5E16F51450FD1238C6269E9
:102CB000016807689201C1F3036142EA034242EAF4
:102CC0000162C7F3027142EA0171016021780907CC
:102CD00016D561690268D0F800C08B01277FC2F366
:102CE0000362CCF3014143EA014141EA026141EA56
:102CF000077101602868E16A20F4403008432860C9
:102D0000306840F080503060FFF7D6F9044607E0A5
:102D1000FFF7D2F9001B642802D90320BDE8F88F21
:102D20003068C0438000F3D40020F7E72DE9F04776
:102D300005000F4663D0444E306800F00F00B842E3
:102D400009D2306820F00F0038433060306800F05E
:102D50000F00B84253D128683C4C810712D5400778
:102D600003D5206840F4E05020602878000703D5A0
:102D7000206840F460402060A968206820F0F000DE
:102D8000084320602878C0072AD03049686808398D
:102D9000012810D00968022810D0890700292EDAEE
:102DA000216821F0030101432160FFF785F9804686
:102DB00041F288390DE009688903EFE78901EDE701
:102DC000FFF77AF9A0EB0801494502D90320BDE8D5
:102DD000F0876868216801F00C01B1EB800FEFD13A
:102DE000306800F00F00B8420BD9306820F00F00B7
:102DF00038433060306800F00F00B84201D0012045
:102E0000E5E72878400705D5E968206820F4E05018
:102E1000084320602878000706D52869216821F436
:102E2000604141EAC000206000F03CF82168084A97
:102E3000C1F30311515CC840064908600020FFF748
:102E40002FFB0020C3E70000003C0240083802408E
:102E5000285702082C07002001480068704700002E
:102E60002C0700200449054809680068044AC1F39A
:102E70008221515CC8407047083802402C0700206E
:102E8000385702080449054809680068044AC1F334
:102E90004231515CC8407047083802402C0700207E
:102EA00038570208154910B51548096811F00C0289
:102EB00013D01449042A0FD0082A0ED10F4C241F16
:102EC0002268236802F03F025B0207D52068C0F346
:102ED0008810A0FB010106E0084610BD2168C1F37F
:102EE0008811A1FB00010023FDF78AF92168C1F3D5
:102EF0000141491C4900B0FBF1F010BD0838024007
:102F00000024F40040787D012DE9F84F05004FF0D2
:102F100000076ED02878DFF81C93A9F1040AC007D7
:102F2000AAF104044CD0D9F800104846C1F381013D
:102F3000012908D00068C0F3810002280AD1DAF81C
:102F40000000400206D52068800339D56868002853
:102F5000DFD035E06868B0F5803F0BD010B1B0F538
:102F6000A02F11D0206820F480302060206820F449
:102F7000802002E0206840F480302060686890B1D2
:102F8000FFF79AF806460AE0206840F480202060A7
:102F9000F0E700BFFFF790F8801B642872D8206824
:102FA0008003F7D50CE0FFF787F8064605E000BF81
:102FB000FFF782F8801B6428F0D820688003F7D4DC
:102FC0002878800742D5D9F80010484611F00C0F38
:102FD00008D00068C0F3810002280BD1DAF80000A5
:102FE000400207D42068800718D5E868012800D17E
:102FF00014E01CE1E8680028206817D040F00100C8
:103000002060FFF759F8064605E000BFFFF754F8C7
:10301000801B0228C2D820688007F7D5286921685C
:1030200021F0F80141EAC00020600FE020F001002B
:103030002060FFF741F8064605E000BFFFF73CF8C7
:10304000801B02281ED820688007F7D42878000744
:1030500029D5784869696C3000298046016812D00A
:1030600041F001010160FFF727F8064605E000BFC7
:10307000FFF722F8801B022804D8D8F80000800748
:10308000F6D510E089E021F001010160FFF714F8A6
:10309000064604E0FFF710F8801B02287DD8D8F818
:1030A00000008007F6D4287840076BD5DFF88481CC
:1030B00008F13808D8F80000C0000BD4D8F8001088
:1030C00041F08051C8F80010D8F80000012700F046
:1030D0008050009058480168C90512D401688346A1
:1030E00041F480710160FEF7E7FF064605E000BF8E
:1030F000FEF7E2FF801B64284FD8DBF80000C00514
:10310000F6D54C4EA868683601280AD008B10528C3
:1031100011D0306820F001003060306820F00400E9
:1031200002E0306840F001003060A868A0B1FEF70E
:10313000C3FF83460CE0306840F004003060F0E7E5
:10314000FEF7BAFFA0EB0B0141F28830814266D84E
:1031500030688007F4D50EE0FEF7AEFF834607E047
:10316000FEF7AAFFA0EB0B0141F28830814256D84E
:1031700030688007F4D42FB1D8F8001021F08051C6
:10318000C8F80010A869C8B3D9F80010C1F38101CC
:1031900002294CD00228206800E040E020F0807036
:1031A000206003D0FEF788FF05463BE0FEF784FF72
:1031B000064604E0FEF780FF801B02282FD8206817
:1031C0008001F7D4D5E90962D5E907011B4B5708FF
:1031D00095F82C20084303EB074343EA8611084384
:1031E00040EA026040F00050CAF80000206840F059
:1031F00080702060FEF760FF054606E015E000BF26
:10320000FEF75AFF401B022809D820688001F7D535
:103210000BE000BFFEF750FF401B022802D903203D
:10322000BDE8F88F20688001F4D40020F8E7012081
:10323000F6E7000008380240007000400000FFFF81
:1032400070B504000D4603D094F82C0010B107E0CF
:10325000012070BD002084F82D00204600F011F8F8
:10326000022084F82C002068211DFEF7DBFAD4E947
:1032700000022946FEF71CFB012084F82C000020E8
:1032800070BDFEF7BBBD10B5044690F82C000228B7
:1032900009D0022084F82C002068FEF7F2FA012001
:1032A00084F82C00002010BD70B5044690F82C0066
:1032B0000D4602280DD0022084F82C002068FEF76D
:1032C000E6FA2868022805D05FF0010084F82C0097
:1032D000002070BD0520F9E7401EB0F1807F10B5D9
:1032E00001D3012010BD4FF0E02460610F21601771
:1032F00001F017FD0020A0610721216110BD70477A
:103300007047704770B590F83C20012A24D0134CC8
:10331000012580F83C50022280F83D200268536865
:10332000A242966802D00E4CA24203D14C6823F40C
:10333000700323430C6823F0700389681C435460B6
:10334000002326F0800602683143916080F83D50EA
:1033500080F83C30184670BD022070BD000001406E
:103360000004014010B5040003D094F83D0010B1F2
:1033700007E0012010BD002084F83C00204600F04A
:103380000DF8022084F83D002068211D01F022FA8A
:10339000012084F83D00002010BD000008B5154A4A
:1033A0000168154891420ED1016841F01001016099
:1033B00000680022114600F0100000903620FFF750
:1033C00005FA362010E00D4A914211D1016841F012
:1033D0002001016000680022114600F020000090EA
:1033E0003720FFF7F3F93720BDE80840FFF7E0B9D1
:1033F00008BD0000001000404038024000140040AA
:103400000168094ACB6843F00103CB600168886812
:103410001040062806D0B0F5803F03D0086840F081
:10342000010008600020704707000100704770B578
:103430000446006800250169C943890715D4C1689D
:10344000C943890711D4EA1E02610121217720684E
:1034500080698007204602D0FFF7E8FF04E000F013
:10346000A7F8204600F0A5F8257720680169C94330
:10347000490717D4C168C943490713D402216FF023
:103480000402026121772068806910F4407F2046A1
:1034900002D0FFF7CBFF04E000F08AF8204600F0EE
:1034A00088F8257720680169C943090716D4C168DF
:1034B000C943090712D404216FF008020261217781
:1034C0002068C0698007204602D0FFF7AFFF04E004
:1034D00000F06EF8204600F06CF82577206801694E
:1034E000C943C90617D4C168C943C90613D4082102
:1034F0006FF01002026121772068C06910F4407FEC
:10350000204602D0FFF792FF04E000F051F8204679
:1035100000F04FF8257720680169C943C90708D131
:10352000C168C943C90704D1891E0161204600F062
:1035300041F820680169C943090609D4C168C94333
:10354000090605D46FF0800101612046FFF7D8FE1F
:1035500020680169C943C90509D4C168C94309067E
:1035600005D46FF4807101612046FFF7C8FE206822
:103570000169C943490609D4C168C943490605D44C
:103580006FF040010161204600F015F820680169E4
:10359000C94389060BD4C168C943890607D46FF0B3
:1035A000200101612046BDE87040FFF7AABE70BD52
:1035B000704770477047704710B5040002D0606FC5
:1035C00010B107E0012010BD002084F870002046F3
:1035D00000F026F8242060672068016821F00101CE
:1035E0000160204601F00AFA0128ECD0606A10B1AF
:1035F000204601F081F92068416821F49041416042
:103600002068816821F02A0181602068016841F00A
:10361000010101602046BDE8104001F0D1B9000071
:1036200070B586B0054614216846FCF742FE2B486B
:1036300000242B4B2A681438284902259A422BD1A2
:103640000A6842F010020A60096801F01001059151
:10365000016841F002010160016801F00201059179
:10366000016841F00101016000680726694600F029
:103670000100059080200090CDE901541948CDE962
:103680000346FEF715FC28020090CDE901541648C8
:103690006946CDE903461CE0144B9A421BD10A68E7
:1036A00042F020020A60096801F0200105910168DA
:1036B00041F004010160006808220321029400F037
:1036C00004000590C020CDE90312CDE900050848AB
:1036D0006946FEF7EDFB06B070BD000044380240BD
:1036E00000100140000402400000024000140140AC
:1036F000000802402DE9F84F0446806F9B461646AD
:103700000D4620286AD1EDB1E6B194F87000012889
:1037100064D0012284F8702022214FF00008C4F800
:103720007C80A167FEF7C8FC8246A068A4F85860B8
:103730004FF48053A4F85A60FF21984208D12269BF
:103740001AB118E00120BDE8F88F40F2FF1112E035
:103750004FF07F0268B1B0F1805F0FD0A4F85C80B9
:103760009842B4F85C7001D1206970B12E460025F2
:103770000CE0266936B9A4F85C10F1E7216909B1BB
:103780003F21F8E7A4F85C20EAE7002607F0FF09EC
:10379000B4F85A00E0B10022534620212046CDF86B
:1037A00000B001F055FA08B10320CCE72068406A68
:1037B00056B100EA090006F8010B00BFB4F85A0040
:1037C000401EA4F85A00E3E7384025F8020BF5E75D
:1037D0002021A167002084F87080B4E70220B2E7BE
:1037E0002DE9F8430446406F1F4616460D46202833
:1037F0004FD1CDB1C6B194F87000012849D0012253
:1038000084F8702021214FF00008C4F87C806167A3
:10381000FEF752FC8146A068A4F85060A4F85260FC
:10382000B0F5805F03D004E00120BDE8F883206993
:1038300010B12E46002510E000260EE08021204623
:1038400001F006FAB8B9C6B116F8010B2168886212
:10385000B4F85200401EA4F85200B4F852004B468F
:103860004FF0000200970028E8D14FF040012046B9
:1038700001F0EEF938B10320D7E735F8020B2168E3
:10388000C0F30800E3E720216167002084F870801E
:10389000CBE70220C9E7FEE701688A69D2439207B5
:1038A00001D400228A6200688169C943C90703D034
:1038B000816941F001018161704700002DE9F0410B
:1038C0000446006890460E468069C043C00635D461
:1038D0000025202720688069C043800616D5701C0B
:1038E000F8D0FEF7E9FBA0EB0800B04201D8002EAB
:1038F000F0D1606C84F8405040F02000606484F89F
:10390000417084F842500120BDE8F0812168102008
:10391000C8612068C7612046FFF7BEFF20680849DC
:1039200042680A404260606C40F00400606484F8C1
:10393000417084F8425084F84050E4E70020E3E707
:1039400000E800FE2DE9F843174604461548DAB2B0
:10395000DDE908981E4600900023204600F056F846
:1039600042464946204600F0BBF8B8B9012EFDB2E8
:1039700008D02068390A816242464946204600F054
:10398000AFF858B920688562002240214B46204696
:10399000CDF8008000F050F8002800D00120BDE8EC
:1039A000F8830000002000802DE9F8430446164803
:1039B00017461E46DAB20090C3022046DDE9089899
:1039C00000F024F842464946204600F089F8B8B98C
:1039D000012EFDB208D02068390A8162424649466C
:1039E000204600F07DF858B92068856200228021C9
:1039F0004B462046CDF8008000F01EF8002800D08D
:103A00000120BDE8F88300000020008070B5006848
:103A1000C1F30901074E41EA0241049C4FF480655D
:103A20004268194305EA54553543AA4321430A43E2
:103A3000426070BDFF63FF032DE9F0411D4617464C
:103A40000E460446DDF8188008E0681C06D0FEF734
:103A500033FBA0EB0800A8420BD855B12068806961
:103A600036EA000013D00020B842EED00020BDE8B6
:103A7000F081626C002084F84000202142F0200296
:103A8000626484F8411084F842000120EFE70120CD
:103A9000EAE770B516460D4604460DE03246294663
:103AA0002046FFF70BFF08B1012070BDFEF704FBB5
:103AB000801BA84207D835B120688069C0438006C2
:103AC000ECD4002070BD626C002084F840002021FE
:103AD00042F02002626484F8411084F84200E3E777
:103AE00070B516460D4604460FE03246294620467C
:103AF000FFF7E4FE08B1012070BD681C05D0FEF799
:103B0000DBFA801BA84207D835B120688069C04322
:103B10008007EAD4002070BD626C002084F8400069
:103B2000202142F02002626484F8411084F84200AF
:103B3000E1E710B50446FEF7C5FA2046BDE810409F
:103B4000AFF3008010B50446FEF7D6FA002818D16E
:103B50000C48844201D10C4800E00C4801210C4A79
:103B6000206000206260C4E9020120616061E061C0
:103B70002062204600F00EF82046BDE81040FEF717
:103B8000BFBA10BDB8190020005C004000540040CE
:103B900032279140F0B542490022424B87B0424D56
:103BA0004FF48076414C9842D1F800C04FF012009B
:103BB0004FF002034FF0040737D14CF0800CC1F8EE
:103BC00000C009680DF1080C01F080010591802109
:103BD000CDE900108CE88C00354F69463846FEF779
:103BE00067F9694638460096FEF762F9286840F49E
:103BF00000002860286800F400000590206840F468
:103C000000002060206820F40000206000220F21C6
:103C10004820FEF7DBFD4820FEF7CAFD00220F21F9
:103C20004920FEF7D3FD492035E04CF0020CC1F8E5
:103C300000C00968CDE9022301F00201CDE9047159
:103C4000CDE900601B4E69463046FEF731F970152C
:103C5000694600903046FEF72BF9286840F40010C2
:103C60002860286800F400100590206840F40010D7
:103C70002060206820F40010206000220F211F2007
:103C8000FEF7A4FD1F20FEF793FD00220F21202048
:103C9000FEF79CFD2020FEF78BFD07B0F0BD000075
:103CA00030380240B8190020403802402038024025
:103CB000001C024000040240FEB50D4606464FF4CB
:103CC0007A74DDE908018DE8130029463046FEF7D5
:103CD00073FA040003D029463046FFF72AFF204636
:103CE000FEBDFEB50D4606464FF47A74DDE90801C7
:103CF0008DE8130029463046FEF710FB040003D080
:103D000029463046FFF715FF2046FEBD2DE9F84352
:103D100007461B480E461546DDE908184FF44032A9
:103D20001C464260174A126802EB820303EBC20290
:103D3000A0F1A80303EB8202926C022A00D00022B9
:103D40008260114A0260C1600D48FDF7BFFE002885
:103D500014D10B483946FDF769FE00280ED10848FA
:103D60002B46324641460094FDF779FF002805D1E5
:103D7000BDE8F84302480A21FDF7EABEBDE8F88332
:103D80007C1B00203007002000B002402DE9FE4FD0
:103D900081460068882493468D888C2204EBCB17DB
:103DA0008A46C3689421BE46C459C3F30B432B44CF
:103DB00004F470441F04019702EBCB1240F80E404C
:103DC00001EBCB13DAF800709C214FF0AC0C01EB47
:103DD000CB1440F2077102910CEBCB11D9F800C063
:103DE00098250020CDF800C0A02605EBCB15DCF807
:103DF0000CC006EBCB16CCF30B4C0CF1010C07EB13
:103E00000C08DDF800C0019F48EA07084CF80E8056
:103E1000D9F80070BAF80CC0B846FF68C7F30A07B3
:103E200067444FEA074E58F8027007F4704C48F8A0
:103E300002C0D9F800C0DAF80870DCF80C80C8F3CA
:103E40000A0808F10108B84448EA0E084CF8028054
:103E5000D9F80020D75827F00707D750D9F80070B5
:103E6000DAF81020FA509AF831209AF818304FEA10
:103E7000022C9AF83220120442EA0362D9F8003088
:103E80001F5918519AF8303043EA0C031343D9F8FC
:103E900000201351D9F80020535923F0FF03535148
:103EA000D9F80020DAF814305351D9F8002093598A
:103EB000029CA3439351D9F80030DAE90724224346
:103EC0009A51D9F8002053585050D9F80020DAF808
:103ED00024005050DAF81000C8B301283AD0042862
:103EE0003AD0022838D0032836D0072834D0012011
:103EF000D9F80030B02505EBCB11B42284245D58ED
:103F000002EBCB1205F0E0255D50DAE9003504EB59
:103F1000CB14EB1ABAF8285043434543D9F80000B4
:103F2000DB1C43EA05434350D9F8000081586FF386
:103F30000A018150D9F80000DAF82C108150D9F824
:103F40000000015941F001010151BDE8FE8FFFE77A
:103F50000420CDE70320CBE70220C9E770B588B085
:103F60001C216846FCF7A5F90F48002204250D4ED8
:103F700080234024C0E90062C0E90225C0E906327E
:103F80000262102142628262C0E904140091019130
:103F9000029103910491059106916946FFF750F94A
:103FA00008B070BD400100A0B80A00202DE9F04F14
:103FB00087B014216846FCF77CF9FE48016841F09F
:103FC00010010160016801F010010591016841F0E4
:103FD00040010160016801F040010591016841F074
:103FE00002010160016801F002010591016841F0E0
:103FF00008010160016801F008010591016841F0C4
:1040000004010160016801F004010591016841F0BB
:1040100001010160016801F001010591016841F4AD
:1040200000710160016801F400710591016841F4BB
:1040300080710160016801F480710591016841F4AB
:1040400080610160016801F480610591016841F0BF
:1040500020010160016801F020010591016841F033
:104060008001016000680122202100F0800005909D
:10407000D148FEF709F8D148002241F20C01FEF7C1
:1040800003F8CF4800220821FDF7FEFFCD480022AB
:104090004FF40051FDF7F8FFCB480022C821FDF78F
:1040A000F3FF00244FF0080BC84869460294CDE99D
:1040B00000B4FDF7FDFE09204FF004090326CDF8FA
:1040C000009002256946CDE90360C048CDE901545E
:1040D000FDF7EEFE4FF4D0400294CDE900050B2031
:1040E0006946CDE90360B848FDF7E2FE012769465D
:1040F000300200901220CDE90107B548CDE903490F
:10410000FDF7D6FE02AA43F62340CDE900054FF0A5
:104110000A08AF4882E850016946FDF7C9FE102041
:104120000090CDE90154AA486946CDE90345FDF761
:10413000BFFE80200090CDE901549F486946CDE93B
:10414000034BFDF7B5FE4FF4F8500294CDE900059E
:104150000C206946CDE903609E48FDF7A9FEA8033F
:104160000090CDE901549C486946CDE90347FDF72D
:104170009FFE60204FF00D0A00906946CDE9015482
:104180009248CDE9034AFDF793FE4020694602AA12
:10419000CDE900058E4882E85001FDF789FEE8026E
:1041A0006946CDE900048D480294FDF781FE402068
:1041B00000908B486946CDE901047F48FDF778FE01
:1041C0004FF4E050694602AACDE90005824882E832
:1041D0005001FDF76DFEF0200090CDE901547748C5
:1041E0006946CDE90348FDF763FE68020090CDE91A
:1041F000015475486946CDE90348FDF759FE202072
:104200000090CDE901746C4869460394FDF750FEB7
:10421000CDF800B06946CDE901546748CDE9034ABD
:10422000FDF746FE41F20C000090CDE901746348B1
:1042300069460394FDF73CFE28036946CDE9000476
:1042400064480294FDF734FECDF800B06946CDE92C
:1042500001745B480394FDF72BFE28020090CDE922
:10426000015459486946CDE9034AFDF721FE102063
:104270006946CDE9000450480294FDF719FE0C2070
:10428000CDF800906946CDE903604B48CDE9015473
:10429000FDF70EFE48F204006946CDE900044948E6
:1042A0000294FDF705FE05200095CDE9015469460D
:1042B000CDE903404148FDF7FBFD28030090CDE91F
:1042C0000174404869460394FDF7F2FD4FF4BC4089
:1042D0000090CDE901543B486946CDE9034AFDF71A
:1042E000E7FD00976946CDE901543448CDE903451F
:1042F000FDF7DEFDE8010090CDE90154364869463E
:10430000CDE90347FDF7D4FD280300903448694602
:10431000CDE901042948FDF7CBFD1020694602AA2A
:10432000CDE90005274882E85001FDF7C1FDC8200E
:104330000090CDE90174244869460394FDF7B8FD67
:104340004FF4F8606946CDE9000626480294FDF76F
:10435000AFFD0520694602AACDE900051D4882E8A7
:104360005001FDF7A5FD32200294CDE900050B2098
:104370006946CDE903601748FDF79AFD0920CDF89D
:1043800000906946CDE903601148CDE90154FDF77D
:104390008FFD4FF460500294CDE900050920694675
:1043A000CDE903600448FDF783FD07486946CDE980
:1043B000009419E030380240000C02400020024016
:1043C00000280240001C0240001802400010024079
:1043D00000040240000802400000024000240240A5
:1043E00000001210001402400294FDF761FD8620C7
:1043F0000294CDE900050B206946CDE90360214810
:10440000FDF756FD009769461E48CDE90164FDF7AA
:104410004FFD50200090CDE901541A486946CDE97E
:10442000034AFDF745FDF101009112211648CDE93F
:104430000117CDE903696946FDF73AFD28211148C6
:1044400002AACDE90015694682E85001FDF730FD6A
:10445000092040210091CDE90154CDE903400A48EB
:104460006946FDF725FD0521B0030090CDE9015413
:10447000CDE9034105486946FDF71AFD07B0BDE8DF
:10448000F08F000000000240001C024000040240C7
:10449000F0B59BB034216846FBF70BFF34210DA823
:1044A000FBF707FF2A480024284B072140F2E517B5
:1044B00040F28E264FF4257C0360052544600322DC
:1044C00084600E23C460C0E90441B91CC0E90BC17B
:1044D00000F1180181E8EC0080F8344080F83540A4
:1044E00080F83640FEF728F84FF480660194029475
:1044F000002200946946CDE906468DF830400394C9
:10450000049405948DF831401148CDE908540A947B
:104510000B948DF83240FDF7E3FF0D9401220E94C9
:104520000DA90F94109411941294CDE91346CDE97E
:1045300015548DF864408DF865400548179418941B
:104540008DF86640FDF7CCFF1BB0F0BD0068014060
:10455000900800200A48002130B4084C0C224FF487
:10456000E1330460C0E90131C160C0E90412816136
:10457000C1610162416230BCFFF71EB8001001400A
:10458000B80900200A48002130B4084C0C224FF42E
:10459000E1330460C0E90131C160C0E90412816106
:1045A000C1610162416230BCFFF706B800140140EE
:1045B000380A002010B58CB0FFF7E4FF02F026FCAB
:1045C0001048002102F09AFF0E4C10F0FF0F6060BF
:1045D00004D0020AC1B20CA000F06CFB12493022D8
:1045E0006846FBF74DFE02F095FF0490694620688F
:1045F00002F0C8FF002803D1206802F094FF606039
:104600000CB010BD08070020453A204149206572D2
:10461000726F72202D20747970653D256420636F60
:1046200064653D25640D0A00408F010810B58CB00B
:10463000134918226846FBF723FE1149182206A8E1
:104640001831FBF71DFE114C0120ADF8040006AA3D
:10465000ADF81C000B490C48049169460A9020688B
:1046600003F04EF8012808D0206802F05CFF020A2F
:104670006060C1B206A000F01DFB0CB010BD0000D0
:10468000708F0108180B0020581700200807002021
:10469000453A204149206572726F72202D2074794D
:1046A00070653D256420636F64653D25640D0A00D7
:1046B000FEE7704770477047FDF7DEBE70B5B4B0D7
:1046C000302121A8FBF7F5FD14212DA8FBF7F1FD02
:1046D00084216846FBF7EDFD2148016841F08051D7
:1046E0000160006800F0805032901E48016821F49B
:1046F000404141F4004101600068002529AB00F40D
:10470000404032900224219410200A21D222CDE987
:10471000274583E8160001262C94CDE9246021A8C2
:10472000FEF7F2FBE2024FF4A0510F20CDE9301268
:104730002DAA052182E831002DA8FEF7F7FACDE970
:10474000074540F6480000901195C021CDE90A6563
:1047500016956846CDE90514FEF76AF834B070BDC9
:104760004038024000700040104A30B510481468CC
:1047700000210F4B44F470041460083305680D4A9F
:104780000D4C45F00105056019600368051D1340D7
:10479000074A03600C322C600568E305034C25F4DE
:1047A00080250560803C1160236030BD88ED00E00D
:1047B00000380240FFFFF6FE103000240148FEF7EB
:1047C00036BE0000380900200148FEF730BE000068
:1047D00078090020F0B5274B4FF0804E264D026837
:1047E0009842264E264F274C09D0704507D0A84244
:1047F00005D0B04203D0B84201D0A04205D1D1F8D3
:1048000004C022F070024CEA020298421BD07045AC
:1048100019D0A84217D0B04215D0B84213D0A04248
:1048200011D0194DA8420ED0184DA8420BD0184DEA
:10483000A84208D0174DA84205D0174DA84202D073
:10484000164DA84203D1CD6822F440722A434D6927
:1048500022F080022A43026098428A68C2620A6893
:10486000826201D0A04201D1096901630121416145
:10487000F0BD0000000001400004004000080040BE
:10488000000C004000040140004001400044014091
:104890000048014000180040001C0040002000407B
:1048A000FDF79ABA0148FFF74DB90000B81900208A
:1048B0003EB50124002202AB8DF80820CDE900347A
:1048C0000A46234601460348FFF7F6F99DF808001B
:1048D0003EBD0000B819002007B5012382B004AA2C
:1048E000CDE900230A4601460248FFF7FAF905B070
:1048F00000BD0000B819002090F82410C90706D0A8
:104900000168836A4A6822F400321A434A6090F8C8
:104910002410890706D50168C36A4A6822F48032E8
:104920001A434A6090F82410490706D50168036BC2
:104930004A6822F480221A434A6090F8241009073A
:1049400006D50168436B4A6822F400421A434A6064
:1049500090F82410C90606D50168836B8A6822F492
:1049600080521A438A6090F82410890606D501689F
:10497000C36B8A6822F400521A438A6090F82410AC
:10498000490611D50168036C4A6822F480121A4363
:104990004A60016CB1F5801F06D10168436C4A681A
:1049A00022F4C0021A434A6090F82410090606D582
:1049B0000168826C486820F400201043486070470A
:1049C00038B500250446C567FDF776FB0346206829
:1049D000006800070BD56FF07E4000900022204653
:1049E0004FF4001100F034F908B1032038BD202045
:1049F000606784F87050A067002038BD2DE9F04151
:104A000004468068DFF818C2864F2368D4E9045250
:104A1000E16928431E6800250A438349104306EADA
:104A20000C0606431E604FF400422068E6684368A7
:104A300023F44053334343602368A669206AD3F8C4
:104A400008C030432CF4306606439E602068B842AC
:104A50000AD1086810F0030052D001287BD0022848
:104A60007AD003286ED186E0704B98420AD108684C
:104A700010F00C0079D004287BD0082877D00C28BF
:104A800060D178E06A4B98420AD1086810F0300093
:104A90006BD010286DD0202869D0302852D16AE020
:104AA000644B98420AD1086810F0C0005DD04028DD
:104AB0005FD080285BD0C02844D15CE05E4B984238
:104AC0000DD1086810F440704FD0B0F5807F50D001
:104AD000B0F5007F4BD0B0F5407F33D14BE0574B62
:104AE00098420FD1086810F4406009D0B0F5806F8B
:104AF0003FD0B0F5006F3AD0B0F5406F22D13AE028
:104B0000012120E04E4B98420DD1086810F440502E
:104B10002BD0B0F5805F2CD0B0F5005F27D0B0F57A
:104B2000405F0FD127E0474B98420BD1086810F443
:104B300040401AD0B0F5804F1BD0904217D0B0F54E
:104B4000404F18D01021E0694FF6EF76904238D1EF
:104B500009295DD202E00CE009E006E0DFE801F09F
:104B60000D1027582A5858582D000021EBE7022134
:104B7000E9E70421E7E70821E5E7FEF773F901E03B
:104B8000FEF780F90146D4F80400490001EB50011A
:104B9000B1FBF0F080B2A0F11001B14238D84FF66D
:104BA000F0732168C0F342021840104324E0264904
:104BB0006068EBE7FEF776F9E4E760684FF4803170
:104BC000E4E7092924D2DFE801F0050819231C23B2
:104BD00023231F00FEF746F901E0FEF753F90146D3
:104BE000D4F8040001EB5001B1FBF0F080B2A0F169
:104BF0001001B1420CD82168C8600AE0134960680E
:104C0000F0E7FEF74FF9EAE7606802EB5001EBE7E7
:104C100001250020206660662846BDE8F08100007E
:104C2000F369FFEF0010014090380240004400405B
:104C300000480040004C004000500040001401407B
:104C400000780040007C00400048E8010024F400A7
:104C50002DE9F041984617460E460446069D08E0A9
:104C6000681C06D0FDF728FAA0EB0800A8420BD874
:104C700055B12068C06936EA000017D00020B8425C
:104C8000EED00020BDE8F0812168202000220B68D2
:104C900023F4D0730B6021688B6823F001038B60D1
:104CA0006067A067032084F87020EBE70120E6E747
:104CB000FEE700000FB4054B10B503A9044A0298A3
:104CC00001F084F810BC5DF814FB00002D8500088D
:104CD000CC0700200FB4084B10B504A902AA039812
:104CE00001F074F8044602A9002001F006FC2046F9
:104CF00010BC5DF814FB0000FB64000841000802D2
:104D000018BF04200A0E18BF40F001004FF07F4288
:104D100032EA010108BF40F00200012808BF052067
:104D20007047090700284FEA116104DB00F1E02019
:104D300080F80014704700F00F0000F1E02080F8C8
:104D4000141D704730B528B1144C031F0020216892
:104D50000A4605E0084630BD9A4203D8104652681C
:104D6000002AF9D1002800D041680BD00468A3EBD9
:104D70000005A54204D11B681C440346046002E000
:104D8000436000E023603AB11C68D51AA54203D104
:104D900015682C441C6052685A6030BDD007002052
:104DA00010B510EE104A4FF019406849002200EB90
:104DB00044002DED028B884257D8DFED650A14F0D0
:104DC000004F60EE200A14BFBEEE001AB6EE001AC5
:104DD00071EE200AFDEEE00A10EE900A00EE900A55
:104DE000F8EEE00A9FED5B1A00EEC10A9FED5A1A39
:104DF00000EEC10ADFED590A9FED591A00EE201AA4
:104E0000DFED580A40EE010A9FED571A574B00F0AC
:104E1000030100EE201A21EE000A7B4403EB81031C
:104E2000D3ED000A524B7B4403EB810393ED001A50
:104E3000504B41EE000A7B4403EB8101801091ED61
:104E4000000A70EE800AEABB00EE100AB8EEC01A43
:104E5000DFED491A9FED490ABDEC028B01EE210AF4
:104E6000BCEEC00A20EE200A10BD4FF0FF40A04368
:104E70001BD04FF0CE40B0EB440F82BFB7EE000A1C
:104E8000BDEC028B10BD3E48B0EB440F28BF0122A1
:104E900093D2022000F0C4F814F0004F15D0BDECFE
:104EA000028BBDE8104000F0A3B814F5000F02BF5C
:104EB0009FED340ABDEC028B10BDBDEC028BBDE84A
:104EC000104000E007E000F087B8BDEC028BBDE8C1
:104ED000104000F085B800EBD07359104FF07E52AF
:104EE00002EBC15100EE101AA0EB630002EBC050C0
:104EF00060EE200A00EE100A20EE208A18EE100A5A
:104F000088B118EE100AB0F1FF4F15D018EE100A54
:104F1000FFF7F4FE042808BF00F06AF8B0EE480A74
:104F2000BDEC028B10BD022000F07AF8BDEC028BC4
:104F3000BDE8104000F05CB8022000F071F8BDEC54
:104F4000028BBDE8104000F04BB800000000501E7E
:104F50003BAAB8400070313EF4FD053712BB2A3D34
:104F600012BB2A3EFFFFFF3EFFFF7F3F8A28020061
:104F70008E2802005E2802000000004B00007E4EDA
:104F80000000A085000000002DE9F04782460F4C8C
:104F900010480D4E0E4F001B4FF0000820F0070583
:104FA0004FF0010900221146504603F055FC00283D
:104FB00002D1306810B10020BDE8F0873C60C4E940
:104FC0000058C6F80090EDE7D4070020642F0020B9
:104FD000D0070020603F002030EE000A704700003C
:104FE0009FED020A20EE000A7047000000000070EA
:104FF0009FED020A20EE000A70470000000000103A
:1050000002E008C8121F08C1002AFAD17047704791
:10501000002001E001C1121F002AFBD170470000EF
:105020000149086070470000D80700202DE9F05FB3
:1050300000278A460446B9463E4637E0A06806EB9C
:105040004601D0E9012002EBC10500EBC60BD8F800
:105050001800006801F018FF28600121A980D8F825
:105060000C008089E880D8F80C0000892881D8F8E5
:105070000C004068E860D8F81800806828615FEA92
:105080000B0009D0C0F80090D8F80010416029B199
:10509000498819B1012102E0484603E0002101607E
:1050A00001B9002068617F1CBFB2761C0CB120885A
:1050B00000E00020B04206D9606820B150F8260018
:1050C0005FEA0008BAD11FB1A0684168CAF80010B1
:1050D0003846BDE8F09F0068814301D0002070474A
:1050E000012070472DE9F04F07462DED028B95B05A
:1050F0008068796984680A88237ADB4343F3C013A4
:1051000003F1010B0AB14E6800E00026012A02D922
:105110004D680C3500E00025C18A026D0591B0F89C
:1051200014900020BA42019006D1E169606119B97A
:105130004946204600F0ECFA216A636905989E46CC
:10514000D4F824C04A6903EB4303D1F81C80401C07
:1051500002EBC30ACDF82880096A0491AAF804007A
:10516000CEEBCE00AAF80690E1690CEBC0084945E9
:1051700003D108F12C0002F09EFCBA68BBF1000FCD
:1051800061689160D8F8040040F00100386132D0C5
:10519000002022E080694FF08041FFF79CFFD0B9EA
:1051A00008988069D0E9000101F04CFE02460198A0
:1051B000DAF81030089900EB400C102000EBCC001E
:1051C00089691B580598896800FB0230FBF758F87D
:1051D0000198401C019009F1010081460EB1308810
:1051E00000E00020484506D9706820B150F8290039
:1051F00008900028CED19FED998AE06AF0B318227A
:1052000051460BA8FBF73CF800200A990190CDE924
:105210000F10ADF83A001CE080694FF08041FFF7B5
:105220005AFFA0B90298019980698068009001989E
:105230000F9A00EB4003049800EBC10102EBC3009E
:10524000029A012300F084F90198401C019009F1B1
:10525000010081460EB1308800E00020484506D9A3
:10526000706820B150F8290002900028D4D198ED40
:105270000D0AB8EE400A20EE080A00E006E08DEDC7
:105280000D0AD4E90B3000220BA99847388802F0A8
:1052900001F8002808F12C00064605D002F012FCA7
:1052A00039693846884701E002F00CFC304602F0CC
:1052B00013FCBBF1000F31D04FF000094E4620E047
:1052C000DBF818004FF08041FFF705FFC0B9DBF8AD
:1052D0001800D0E9000101F0B5FD09EB490CDAF83E
:1052E00014300246DBF81810102000EBCC0089685F
:1052F0001B58059800FB0230FAF7C2FF09F10109BB
:10530000761C0DB1288800E00020B04206D96868FC
:1053100020B150F826005FEA000BD1D1E06AE8B373
:10532000182251460BA8FAF7ABFF0020ADF8380061
:105330000F904FF000090A984E4610901AE000BFF7
:10534000DAF818004FF08041FFF7C5FE88B9DAF8A7
:10535000180009EB4903109A80680090049800EB4C
:10536000C90102EBC3005246012300F0F1F809F134
:105370000109761C0DB1288800E00020B04206D952
:10538000686820B150F826005FEA000AD8D198ED8D
:105390000D0AB8EE400A20EE080A00E006E08DEDA6
:1053A0000D0AD4E90B3001220BA99847B868846034
:1053B000D8F8080040F001003861F868B84200D021
:1053C000F0BBE168E069491CE160401EE0613DD14D
:1053D000206A227A9FED220AD243836842F3C012E8
:1053E000C91A81600021521C80ED040A2BE000BF25
:1053F000656AC1EBC10C01EB4103476905EBCC05C4
:10540000082695ED0D0A06EBC3053D44B8EE400AAB
:1054100020EE080A85ED000AD0ED040A456930EE59
:10542000200A80ED040A52B9142707EBC30C0026AA
:10543000102745F80C60456907EBC303EE5000E008
:1054400004E0491C89B2A3698B42D1D86069401C31
:10545000606115B0BDEC028BBDE8F08F6F12833A2E
:10546000000000002DE9F84F856800218A460F46AC
:10547000894688466963A9633449066D41F0010B8A
:10548000002E55D0696ACAEBCA000AF1010A11EB75
:10549000C004C4F808B00DD071682160306940F0D4
:1054A000010161604BF0010030617069018819B140
:1054B000406802E0002015E0002004F10C0100F03B
:1054C000C9F9009070690188012902D940680C303F
:1054D00000E0002004F11C0100F0BCF900998142B9
:1054E00000D90846B84200D83846C4F81090E168A0
:1054F0000746C4F82080686B8944E269A061A86B04
:105500009044A062686B616908446863A86B616A33
:105510000844A863308801F0D7FE014604F12C004E
:1055200002F0AEFAF068B04202D008B10646A9E730
:10553000D5E90D10EF63C91CC01C20F0030021F059
:105540000301C5E90D10BDE8F88F0000E550000823
:105550002DE9F041054690691F461646DDF8188092
:105560000C46006801F090FC2860AF80F0688089EC
:10557000E880F06800892881F0684068C5E9030880
:105580004FF000006CB120603068606018B1408856
:1055900008B1012000E00020206008B1204600E0B2
:1055A00000206861BDE8F08110B5826A1AB1006B15
:1055B0009047012010BD002010BD00002DE9F04FE4
:1055C0004B698FB0D0E907A81C880CB15F6800E078
:1055D0000027012C02D95E680C3600E00026D8F8BE
:1055E000144002EB420C037A0D88C2EBC20204EBBA
:1055F000CC04406A25809FED450A498800EBC2052E
:105600006180DB4384ED020AA98943F3C010401C8A
:1056100089B2A181A88BE08118D02A6901EB4101F0
:10562000D8F8240000EB421020612B6A00EBC10087
:10563000D8F8282002EB43126261D5F818C0D8F8D8
:105640002C30019000200AFB0C3B1EE00020606122
:1056500020610FB0BDE8F08F019809EB490CCDF83F
:1056600000B01FFA8AF3226900EBC90102EBCC00FB
:10567000069AFFF76DFF06988069D0E9000101F0F6
:10568000E1FB0AFB00BB09F1010081460FB138883C
:1056900000E00020484506D9786820B150F829007C
:1056A00006900028D8D1AA6A0025D8F83010E089E1
:1056B0000AFB0217616900EB400001EBC00815E02E
:1056C000009705EB450C62691FFA8AF308EBC501E8
:1056D00002EBCC004A46FFF73BFFD9F81800D0E9AF
:1056E000000101F0AFFB0AFB00776D1C0EB13088A2
:1056F00000E00020A842ACD970680028A9D050F87A
:1057000025005FEA0009DBD1A3E7000000000000EC
:105710002DE9FC5F0546007A8A46C0430021AC694A
:1057200040F3C0100A4600F1010908460BE000BF33
:105730006B6AC0EBC006401C03EBC60380B2DE6898
:10574000DB6931441A448442F2D8D5E90D37480167
:10575000009050010190009804EB44060AFB0301FD
:1057600001984FEAC6080AFB0702EC6B08F1380003
:1057700001F1030102F1030200EB441000F1030008
:1057800020F00306B9F1000F21F0030B22F0030013
:1057900003D006EB0B010F1800E037462C6A4CB122
:1057A00021462846FFF700FF606BB84208D220462A
:1057B00002F03EF9384602F030F9041E44D0676327
:1057C00004EB0800383004F13801C4E90610E96B35
:1057D00001EB410100EBC10222620020B9F1000F90
:1057E0000BD0009BA119616201EB0B020B440199E4
:1057F000A2621144C4E90B3103E0A062606220633D
:10580000E0620026114BC5E907A42A699FED100A42
:10581000196821604F1C1F606060E868A060A8697B
:10582000E06084ED040AA0696061146D5CB13246E9
:105830002146761C2846FFF7C1FEE068A04202D050
:1058400008B10446F3E70120BDE8FC9FC40700202F
:105850000000000070B505000C4606D02CB10020F9
:105860002060A0600646E06017E0002070BD0DD00B
:10587000806958B10268510001D5002003E04168F9
:10588000104601F0DFFAA1680844A060206806F124
:10589000010600F1010020600DB1288800E0002021
:1058A000B04205D9686818B150F826000028DED14A
:1058B000206870BD2DE9FF5F82B00021DDE9043072
:1058C000020DDDF840B0034318D044F61050A2F2A8
:1058D000FF3242431514119801281FD0A5EB0B008D
:1058E000401C5FEA000A4FF000064E4FDFF8389187
:1058F000B046504615D5CAF1000413E011980124B2
:105900004AA3012801D16FEA0B010298119AC0E95C
:105910000031C0E9024206B0BDE8F09FCBF10000C3
:10592000DFE704460021404A491842EB0450CDE924
:10593000001012E0E00707D032463B464046494699
:10594000FAF7F7FD8046894632463B46104619462F
:10595000FAF7EFFD06460F466410002CEAD1DDE9A8
:105960000401DDE90023BAF1000F06DAFAF7E1FDE0
:1059700042464B46FAF7DDFD05E0FAF74CFE42469B
:105980004B46FAF748FE04460E460022284BFAF72B
:10599000C9FE03D84FF0FF30014607E00022254B37
:1059A00020463146FAF71EFDFAF7A4FE102409E05E
:1059B000002C0ADB0A220023FAF722FC039B303278
:1059C0001A55641E50EA0102F2D1641C039AC4F114
:1059D00011031444119A012A03D0012208430DD166
:1059E0000AE0084304D000204FF0110B119072E739
:1059F000A3EB0B056D1E0DE05B4504DD4FF00002CF
:105A000005F1010504E003DA4FF00002A5F10105FC
:105A1000002AECD002981199C0E90231C0E9004592
:105A200079E70000000014400000F03F3000000063
:105A30000000F0430000E03F024600683C3800F1FF
:105A40003C03934204D0038F8B4202D0C06BF5E736
:105A50000020704770B5086815460C4601F0BEFD81
:105A600050B1D4E90F014160D4E90F01086020462C
:105A700001F0DEFF012070BD45B1D4E90F014160A6
:105A8000D4E90F010860204601F0D2FF002070BD6C
:105A90002DE9FE4F040092460F4604D0B4F84800AA
:105AA00020B1E56C03E00020BDE8FE8F0025217BDE
:105AB0000020E082C943A082880702D03022112151
:105AC000E1E0002F61D0DDB32888C8B3B7F80490B7
:105AD000002658E0A868006800EB0610019054D03A
